:100000000C948C060C949C070C94D3060C94D30689
:100010000C94D3060C94D3060C94D3060C94D306FC
:100020000C94D3060C94D3060C94D3060C94D306EC
:100030000C94D3060C94D3060C94D11C0C94D306C8
:100040000C94D3060C94D3060C94D3060C94D306CC
:100050000C94D3060C94D3060C94D3060C94D306BC
:100060000C94D3060C94D3062D132D135F135F133A
:10007000AC13CA13151515150C14A514B614B61423
:100080009B159B15AD15AD15A415AD15AD15AD158D
:100090009B159B15A915AD15AD15A915476F6F6477
:1000A00062796520776F726C642E2E2E0A00486587
:1000B0006C6C6F20576F726C642100085D095D00E5
:1000C0005C040044454255473A2064697361626CA0
:1000D00065642E0A0044454255473A20656E6162C8
:1000E0006C65642E0A0000000000000000002A2B4E
:1000F00028000000000000000000000000000000D8
:100100000029000000002C1E342021222434262740
:10011000252E362D3738271E1F2021222324252661
:100120003333362E37381F0405060708090A0B0C2F
:100130000D0E0F101112131415161718191A1B1C77
:100140001D2F3130232D350405060708090A0B0C35
:100150000D0E0F101112131415161718191A1B1C57
:100160001D2F3130354C0000000000000000000061
:10017000000000000000000000000000000000007F
:10018000000000000000000000000000000000006F
:10019000000000000000000000000000000000005F
:1001A000000000000000000000000000000000004F
:1001B000000000000000000000000000000000003F
:1001C000000000000000000000000000000000002F
:1001D000000000000000000000000000000000001F
:1001E000000000000000000000000000000000000F
:1001F00000000000000000000000000000000000FF
:1002000000000000000000010101010101000101E6
:1002100001010000000000000000000000000000DC
:1002200001000100010101010101010101010101C0
:1002300001010101010101010101010101010101AE
:1002400001000000010100000000000000000000AB
:10025000000000000000000000000000000000009E
:100260000001010101000A0025303862003A200037
:1002700025303258000A722F632030313233343542
:1002800036370A000A002530325820006B65796243
:100290006F6172645F7265706F72743A20000A0059
:1002A00025303258006B6579626F6172645F7365E7
:1002B000745F6C65643A2000290A002575002F00E0
:1002C0002575005D280025640020002564002000BD
:1002D00025640020002564007C0025303258006D24
:1002E0006F7573656B6579205B62746E7C782079BD
:1002F000207620685D287265702F61636C293A2032
:100300005B006D6B5F776865656C5F74696D655FD9
:10031000746F5F6D6178203D2025640A006D6B5F0E
:10032000776865656C5F6D61785F73706565642083
:100330003D2025640A006D6B5F74696D655F746FA5
:100340005F6D6178203D2025640A006D6B5F6D61F3
:10035000785F7370656564203D2025640A006D6BCD
:100360005F696E74657276616C203D2025640A00B9
:100370006D6B5F64656C6179203D2025640A006DBA
:100380006B5F776865656C5F74696D655F746F5FDF
:100390006D6178203D2025640A006D6B5F7768658C
:1003A000656C5F6D61785F7370656564203D2025C5
:1003B000640A006D6B5F74696D655F746F5F6D617A
:1003C00078203D2025640A006D6B5F6D61785F7356
:1003D00070656564203D2025640A006D6B5F696E61
:1003E00074657276616C203D2025640A006D6B5F38
:1003F00064656C6179203D2025640A000A0025753A
:1004000000363A20776865656C5F74696D655F7466
:100410006F5F6D61783A20000A00257500353A203B
:10042000776865656C5F6D61785F73706565643A68
:1004300020000A00257500343A2074696D655F74E8
:100440006F5F6D61783A20000A00257500333A200D
:100450006D61785F73706565643A20000A002575E8
:1004600000323A20696E74657276616C286D73296A
:100470003A20000A00257500313A2064656C6179E4
:10048000282A31306D73293A20000A092D2056613F
:100490006C756573202D0A004D3E004D25643E208D
:1004A000003F007365742064656661756C740A00B2
:1004B000433E200077686572652064656C74613A1C
:1004C00020637572736F723D25642C2077686565B3
:1004D0006C3D25640A53656520687474703A2F2F4B
:1004E000656E2E77696B6970656469612E6F7267DE
:1004F0002F77696B692F4D6F7573655F6B657973C6
:100500000A000A092D204D6F7573656B6579202DE2
:100510000A4553432F713A09717569740A313A09D2
:1005200064656C6179282A31306D73290A323A0981
:10053000696E74657276616C286D73290A333A09A5
:100540006D61785F73706565640A343A0974696D2A
:10055000655F746F5F6D61780A353A097768656524
:100560006C5F6D61785F73706565640A363A097710
:100570006865656C5F74696D655F746F5F6D6178E8
:100580000A0A703A097072696E742076616C75653A
:10059000730A643A097365742064656661756C74E6
:1005A000730A75703A092B310A646F776E3A092D18
:1005B000310A706775703A092B31300A7067646FC1
:1005C000776E3A092D31300A0A7370656564203DF3
:1005D0002064656C7461202A206D61785F7370659A
:1005E0006564202A2028726570656174202F20744C
:1005F000696D655F746F5F6D6178290A003F004D1A
:100600003E2000433E20004C25640A0074696D655D
:10061000725F72656164333228293A202530346C68
:10062000580A00686F73745F6B6579626F617264FA
:100630005F6C65647328293A2025580A000A092D41
:1006400020537461747573202D0A004743433A2088
:10065000352E342E30204156522D4C4942433A20FB
:10066000322E302E30204156525F415243483A20BC
:10067000617672350A004F5054494F4E533A205616
:10068000555342204D4F5553454B455920455854DD
:1006900052414B455920434F4E534F4C4520434FF9
:1006A0004D4D414E4420343039360A004255494CB4
:1006B000443A2022302E372E3132312D362D6736F6
:1006C000343563356622202831383A30363A3536AB
:1006D000204D61722020372032303230290A0056F6
:1006E00049443A2030784645454428746865726527
:1006F00073617068616E3230303029205049443A5D
:100700002030783030303028546D6163726F29208A
:100710005645523A203078303030310A0044455343
:10072000433A204120637573746F6D206B65796265
:100730006F6172640A000A092D2056657273696F31
:100740006E202D0A000A092D20436F6E736F6C65B1
:10075000202D0A4553432F713A09717569740A6D4A
:100760003A096D6F7573656B65790A000A092D206A
:100770004D61676963202D0A443A094465627567D3
:10078000204D65737361676520546F67676C650AF8
:10079000583A094D61747269782044656275672022
:1007A0004D6F646520546F67676C65202D2053681A
:1007B0006F77206B65797072657373657320696EEE
:1007C000206D617472697820677269640A4B3A0916
:1007D0004B6579626F61726420446562756720546D
:1007E0006F67676C65202D2053686F77206B657984
:1007F0007072657373207265706F72740A4D3A0976
:100800004465627567204D6F75736520546F676727
:100810006C650A563A0956657273696F6E0A533AE7
:10082000095374617475730A433A094163746976B4
:1008300061746520436F6E736F6C65204D6F6465E6
:100840000A46312D4631303A09537769746368207E
:10085000746F204C6179657220302D392028463123
:1008600030203D204C30290A302D393A0953776920
:1008700074636820746F204C6179657220302D3963
:100880000A47524156453A095377697463682074A0
:100890006F204C6179657220302028616C7465721C
:1008A0006E617465290A423A094A756D7020746F49
:1008B00020426F6F746C6F616465720A4553433AEE
:1008C000094A756D7020746F20426F6F746C6F6190
:1008D0006465722028616C7465726E617465290AA2
:1008E000453A095072696E7420454550524F4D206B
:1008F00053657474696E67730A4253504143453AB5
:1009000009436C65617220454550524F4D0A000AFB
:10091000002575002E6E6B726F3A20000A00257557
:10092000002E737761705F6261636B736C617368D3
:100930005F6261636B73706163653A20000A002532
:1009400075002E737761705F67726176655F65739E
:10095000633A20000A002575002E6E6F5F67756987
:100960003A20000A002575002E737761705F72616E
:100970006C745F726775693A20000A002575002E55
:10098000737761705F6C616C745F6C6775693A2036
:10099000000A002575002E737761705F7263746CB6
:1009A0005F726775693A20000A002575002E73771B
:1009B00061705F6C63746C5F6C6775693A20000AE4
:1009C000002575002E636170736C6F636B5F746FCD
:1009D0005F636F6E74726F6C3A20000A00257500B9
:1009E0002E737761705F636F6E74726F6C5F63619B
:1009F00070736C6F636B3A20000A00253032580028
:100A00006B65796D61705F636F6E6669672E726189
:100A1000773A20000A002575002E6D6F7573653AD0
:100A200020000A002575002E6B6579626F61726483
:100A30003A20000A002575002E6D61747269783ABB
:100A400020000A002575002E656E61626C653A20F3
:100A5000000A00253032580064656275675F636F75
:100A60006E6669672E7261773A20000A002575006C
:100A700064656661756C745F6C617965723A2000BB
:100A80003F000A6D6F7573653A206F66660A000A4B
:100A90006D6F7573653A206F6E0A000A6B65796237
:100AA0006F6172643A206F66660A000A6B6579624C
:100AB0006F6172643A206F6E0A000A6D6174726928
:100AC000783A206F66660A000A6D61747269783A36
:100AD000206F6E0A000A64656275673A206F666669
:100AE0000A000A64656275673A206F6E0A000A0A96
:100AF0004A756D70696E6720746F20626F6F746CD9
:100B00006F616465722E2E2E2000433E2000436CE0
:100B1000656172696E6720454550524F4D0A006508
:100B200065636F6E6669673A0A006D61696E206C75
:100B30006F6F700A00696E6974466F725573624315
:100B40006F6E6E656374697669747928290A000A84
:100B50000025303258005345545F4C45443A20003C
:100B60000A0056454E444F523A00554E4B4E4F5791
:100B70004E3A005345545F4C45443A200053455487
:100B80005F5245504F52543A20002530325800539E
:100B900045545F49444C453A20004745545F494419
:100BA0004C453A20004745545F5245504F52543A05
:100BB000006B6275663A2066756C6C0A00290A0043
:100BC00025303258005D28002575002D3E00257522
:100BD00000562D5553423A206B6275665B00090240
:100BE0003B0002010080FA0904000001030101003A
:100BF00009210101000122400007058103080001CD
:100C00000904010001030000000921010100012283
:100C100084000705830308000105010902A101857D
:100C2000020901A100050919012905150025017511
:100C300001950581027503950181030501093009BC
:100C4000311581257F7508950281060938158125A2
:100C50007F35004500750895018106050C0A3802AC
:100C60001581257F750895018106C0C005010980A1
:100C7000A1018503150126B700190129B775109543
:100C8000018100C0050C0901A10185041501269C04
:100C90000219012A9C02751095018100C005010905
:100CA00006A10175019508050719E029E71500253A
:100CB00001810295017508810395057501050819E3
:100CC0000129059102950175039103950675081593
:100CD0000026FF000507190029FF8100C01201103E
:100CE0000100000008C016DC05000101020001122D
:100CF00003540065006D0070006C006100740065B5
:100D00000012036F0062006400650076002E00612F
:100D1000007400040309040011241FBECFEFD8E0C3
:100D2000DEBFCDBF04B603FE27C080917302909151
:100D30007402A0917502B09176028730904BA74063
:100D4000B04BD1F41092730210927402109275029B
:100D50001092760214BE84B7877F84BF0FB6F894D2
:100D6000A895809160008861809360001092600077
:100D70000FBEE0E0F8E3099511E0A0E0B1E0E4ED9A
:100D8000F1E502C005900D92A032B107D9F722E03B
:100D9000A0E2B1E001C01D92A337B207E1F70E94C3
:100DA000EF240C94E8280C940000FF93EF93E0915B
:100DB0002001F0912101309709F00995EF91FF9101
:100DC0000895FC018591803011F0EFDFFBCF08958D
:100DD000FF27E0E230E247FF0CC0419597FF09C0D2
:100DE000EDE26095709580959095611D711D811D56
:100DF000911D27FF02C0219530E350E2AA27660F1C
:100E0000771F881F991FAA1FA41710F0A41B6395B2
:100E10005A95A9F7AA3008F0A95FA05DAF93F395A2
:100E2000611571058105910541F7ED3211F4EF93DC
:100E3000F395F21718F43F93F395FBCF8F91B5DF3D
:100E4000FA95E1F70895E991F9918591803021F0C3
:100E5000853219F0AADFF9CF089520E0E894559182
:100E60005532C1F3503311F4689455915A3348F414
:100E7000505390F3220F022E220F220F200D250F28
:100E8000F4CF0EF4219589919991533619F3533784
:100E900029F1533559F1BC0188279927E8945C362C
:100EA00021F48991999168945591543639F446EF1B
:100EB0007EF077FF0DC08FEF9FEF0AC055374AE0F5
:100EC00039F0583540E121F0523642E009F00895FA
:100ED000FF93EF937DDFEF91FF91B7CFFF93EF93F8
:100EE000FC0181918030B9F360DFFBCFFF93EF937A
:100EF00068DFF1CFDF93CF93CDB7DEB72596A3DFC1
:100F0000CF91DF910895A82FB92F80E090E041E0C4
:100F100050EA609530E009C02D918227979587951A
:100F200010F084279527305EC8F36F5FA8F308950B
:100F3000EADF8D939D930895CF93CFB7CF93DF933F
:100F4000C3954B9BE9F74B9B0BC04B9B09C04B9B3D
:100F500007C04B9B05C04B9B03C04B9B01C08BC084
:100F60006F93C0914A02DD27CF5ADD4F2F9365E57D
:100F70004B9B03C02F916F91E6CF0F931F934F931D
:100F800020E040E15F9309B10C7003FB27F93F9328
:100F900050E03BE039C01C7040642F77012F5F5F49
:100FA0001EC0406819B11C702F7752501FC040649A
:100FB00009B12F770C70D1F15F5F00C023C0406290
:100FC00019B12F771C7091F15F5F00C025C00C70C4
:100FD0001027515012F45D5F0000115027952C3FEF
:100FE00019B1C8F61C700127015027952C3FC8F68F
:100FF0004227499309B10C7010274F731150279560
:101000002C3FA8F64695469519B11C7079F001273A
:10101000015027952C3F98F66B5A60F3315009B177
:10102000B0F600C011E01CBB002719C03B50319541
:10103000C31BD04011E01CBB0881033C09F10B34F9
:10104000F9F0209148021981110F1213EDCF4A8156
:10105000441F093651F10D3211F0013E29F700937A
:101060004F023F915F914F911F910F912F916F917F
:10107000CCB3C0FD65CFDF91CF91CFBFCF91189595
:1010800020914F02222369F310914D021123E9F5BB
:101090003430EAF130934D022093490210914A0214
:1010A0003BE0311B30934A0232C000914D020130C7
:1010B00064F50AE54F7049F43091130134FD28C0FE
:1010C00000931301C1E3D2E027C0433049F03091CF
:1010D0003C0234FD1DC000933C02CDE3D2E01CC0B5
:1010E0003091670234FD14C000936702C8E6D2E075
:1010F00013C0052710E000C000000BB91AC0052777
:1011000010E0221F1DC010E021C04AE502C032EDF0
:10111000432FC4E1D0E032E01AB11C605B9A0BB1FE
:101120001AB95CE020E865E320FF05270BB9279595
:1011300017951C3FF0F66695B8F7B1F720FF052725
:101140000BB9279517951C3FD0F62795179517FFD4
:10115000052700001C3F0BB9B0F629913A9519F705
:10116000037F10914E02110FC651D0400BB911F000
:101170001093480211E01CBB08601AB1137F402F86
:10118000437F54E05A95F1F70BB91AB94BB969CFBF
:1011900088302DE5920721F089309D4541F00FC040
:1011A000FB018281882359F08EEA90E006C0FB01A2
:1011B0008281882321F08CE990E00E94860981E0F9
:1011C000089581E008950C94C8081F93CF93DF938E
:1011D00000D000D01F92CDB7DEB749835A836B830E
:1011E0002091320189819A81211112C0662349F030
:1011F0000E946A1A182F682F89819A810E94171AF3
:1012000003C00E94401A182F69817A81812F04C07F
:101210000E946A1A69817A810F900F900F900F9047
:101220000F90DF91CF911F910C94320AFC01408105
:1012300051816281738184810C94E5081F93CF935F
:10124000DF9390E0FC01EA51FF4F1491FC01EA5159
:10125000FE4FD491FC01EA59FE4FC491DD2319F0F1
:1012600081EE0E944411CC2319F086EE0E944411B5
:10127000812F0E94D612CC2319F086EE0E946E12A6
:10128000DD2331F081EEDF91CF911F910C946E122E
:10129000DF91CF911F9108950F931F93CF93DF9309
:1012A000EC01062FFE018491882359F19E012F5FE6
:1012B0003F4F813041F4E901F9011491812F0E94DF
:1012C0004411812F0DC0823031F4E901F90184917C
:1012D0000E9444110AC0833031F4E901F90184917C
:1012E0000E946E1202C00E941E092196802F882340
:1012F000C9F2EFE9FFE03197F1F700C0000081503B
:10130000F6CFDF91CF911F910F91089560E00C947B
:101310004C090E94A11B811102C00E94411C0C9427
:10132000110D0C940D0D08950C94930981E008950E
:101330000C949609CF93C82F0E9494098C2F0E9479
:101340009809CF91089508950E9489150E94A309D4
:101350002FEF84E39CE0215080409040E1F700C0F3
:1013600000000C94F71C0F931F93CF93DF938C0115
:101370000E941609EC01B8010E94E308882309F4D1
:101380006AC0B801CE010E943E0E882309F463C0F2
:10139000B801CE010E947F0E882309F45CC0F801D9
:1013A0008281882339F1C1308CE5D80759F0CE3DD0
:1013B000ECE5DE07E1F0C115FCE5DF07D9F40E949A
:1013C000A40949C080918501C82FC095C170C0FB98
:1013D00080F980938501CC2329F085ED90E00E946F
:1013E000E10639C083EC90E00E94E10635C00E941E
:1013F000411C31C0C631DC4539F50E94EB1A982FEB
:10140000F80182812091000130910101882379F057
:101410009A7A81E009F480E080932201911102C060
:1014200069E201C065E3C9010E947B1C0AC080918A
:101430002201811102C069E201C065E3C9010E9475
:101440007D1C0E942C1B07C0C801DF91CF911F910A
:101450000F910C94E108C0E08C2FDF91CF911F9188
:101460000F910895E72FF0E0E80FF11DE80FF11D4F
:10147000EE0FFF1FE60FF11DEE0FFF1FE554FF4FAC
:10148000859194910895CF93DF930E94320A0E9430
:10149000E70BEC01811521E59207C8F5811540E5C0
:1014A000940708F0E2C0883E9105D0F4803E910593
:1014B00008F089C1883A910570F4853A910508F0E1
:1014C0006AC08130910509F47EC108F42FC10497E8
:1014D00008F079C12BC18F3B910508F467C026C184
:1014E000C11580E2D80758F4C11521E0D20708F0F1
:1014F0006AC1C03FD10508F419C1D06564C1C115E6
:1015000040E4D40708F412C1DF70D06A5CC1C11591
:1015100085E5D807A0F4C11524E5D20708F0ECC092
:10152000C11543E5D40708F0D1C0C11582E5D8073D
:1015300008F0B6C0DC2FCC27C16FD06A44C1C115FA
:1015400029E5D207A0F4C11548E5D40708F0D9C0B1
:10155000C11586E5D80708F0E9C08C2F0E947B0CE6
:101560008F71C82FD0E0DC2FCC27D0622CC1C115E1
:101570002AE5D20708F4CAC0CE01905681159042E0
:1015800008F0D4C08D2F8F710E947B0CDD27D062B4
:101590008F71D82B18C1853A910509F4CAC0863AD3
:1015A000910509F0C9C0C2E8D0E40DC1883A91059F
:1015B00009F4C5C0893A910509F4C4C08A3A910575
:1015C00009F4C3C08B3A910509F4C2C08C3A910565
:1015D00009F4C1C08B3B910509F4C0C08C3B910557
:1015E00009F4BFC08D3A910509F4BEC0803B910556
:1015F00009F4BDC08E3A910509F4BCC08F3A91053B
:1016000009F4BBC0813B910509F4BAC0823B910546
:1016100009F4B9C0833B910509F4B8C0843B910536
:1016200009F4B7C0853B910509F4B6C0863B910526
:1016300009F4B5C0873B910509F4B4C0883B910516
:1016400009F4B3C0893B910509F4B2C08D3B910503
:1016500009F4B1C08E3B910509F4B0C08A3B9105F5
:1016600009F4AFC0C0E0D4E4AEC074E096958795AD
:101670007A95E1F783709C2F937021E030E002C0EF
:10168000220F331F9A95E2F73C68382BCF70C6952E
:10169000C69580E2C89FE0011124C22BD32B93C0D2
:1016A000CE018370992721E030E002C0220F331F62
:1016B0008A95E2F78C2F8695869540E2849FC0013B
:1016C0001124E901C82BD92BDC687DC0CE018370C1
:1016D000992721E030E002C0220F331F8A95E2F7FC
:1016E0008C2F8695869540E2849FC0011124E901E4
:1016F000C82BD92BDA6867C0DC2FCC27C46FD06A1F
:1017000062C0DC2FCC27C06FD06A5DC08C2F8F7079
:101710000E947B0C94E0D695C7959A95E1F7CF701F
:10172000D0E0DC2FCC27D069C82B4DC0C0E0D0E082
:101730004AC0C1E8D0E447C0C3E8D0E444C0C2EE28
:10174000D4E441C0C9EED4E43EC0CAEED4E43BC008
:10175000C5EBD4E438C0C6EBD4E435C0C3EBD4E465
:1017600032C0C4EBD4E42FC0C7EBD4E42CC0CCEC23
:10177000D4E429C0CDECD4E426C0C3E8D5E423C02A
:10178000CAE8D5E420C0C2E9D5E41DC0C4E9D5E467
:101790001AC0C1E2D6E417C0C3E2D6E414C0C4E262
:1017A000D6E411C0C5E2D6E40EC0C6E2D6E40BC052
:1017B000C7E2D6E408C0CFE6D4E405C0C0E7D4E46D
:1017C00002C0CAE2D6E4CE01DF91CF9108958238FB
:1017D000910569F1B0F48133910509F46DC048F4C5
:1017E0008932910509F463C08A32910509F469C010
:1017F00008958533910509F455C089339105B9F0F1
:101800000895833E910569F138F4803E9105B1F069
:10181000823E910509F10895863E9105A9F1873E22
:101820009105B9F1843E910509F064C023C020916F
:101830002F0220FD4FC021FD4DC0089580912F0241
:1018400080FD44C08091300280FF44C080912F020F
:1018500084FD42C083EE4DC080912F0282FF38C0CC
:10186000F5CF80912F0282FD33C08091300280FD40
:1018700031C0ECCF8091300281FF32C080912F02C5
:1018800084FD2AC087EE35C080912F0283FF26C0D9
:10189000F5CF80912F0283FD21C08091300281FD20
:1018A0001FC0ECCF80912F0285FD1CC01DC0809110
:1018B0002F0285FD19C016C080912F0286FD16C02B
:1018C00017C080912F0286FD13C010C089E311C09C
:1018D00082EE0FC080EE0DC080E00BC086EE09C026
:1018E00084EE07C089E205C085E303C08AE201C037
:1018F00081E390E0089590912F0292FF0DC0282F70
:101900002871283019F4877F846006C0282F24713D
:10191000243011F48B7F886093FF0DC0282F28712D
:10192000283119F4877E846106C0282F2471243160
:1019300011F48B7E88612091300220FF0DC0382F7A
:101940003871383019F4877F816006C0382F3171C3
:10195000313011F48E7F886021FF0DC0282F28714F
:10196000283119F4877E816106C0282F2171213129
:1019700011F48E7E886194FD877E0895E82FF0E053
:10198000E95DFD4F80810895CF92DF92EF92FF9243
:101990000F931F93CF93DF9385E792E00E94E106B8
:1019A00087E2E82E82E0F82EC0E0D0E090E7C92E72
:1019B00092E0D92E08E612E0DF93CF93DF92CF9228
:1019C0000E947A078DE692E00E94E106F70181917C
:1019D0007F010E948F1B1F928F931F930F930E9472
:1019E0007A0786E692E00E94E10621968DB79EB7BF
:1019F00008960FB6F8949EBF0FBE8DBFC230D105BA
:101A0000D9F6DF91CF911F910F91FF90EF90DF906A
:101A1000CF90089508950C940A0D0C940B0D0C941E
:101A20000A0D0C940F0D24982C9A25982D9A209825
:101A3000289A57985F9AA5E2B2E01C92E7E2F2E09A
:101A4000108211961C92118282E00E94930D0C94D8
:101A50008909AF92BF92DF92EF92FF920F931F938B
:101A6000CF93DF9344E151E0A5E2B2E0C0E061E052
:101A700070E0EE24E3948D01DC901C92FA018191D8
:101A8000AF01E82FE295EF70F0E021A18F705B01CC
:101A900002C0AA0CBB1C8A95E2F7C5012A2921A322
:101AA00022A1DA2DD0952D2322A320EA2A95F1F741
:101AB00023B121702E253C91F22EF32AFC9229B1FC
:101AC00030E0220F232F221F330B232B11F432E09F
:101AD00001C030E03F293D9391A1D923D1A392A128
:101AE000892B82A381E0F80190819D1101C080E0E3
:101AF000C82BF2E0A732BF0709F0BDCF2C2F42E080
:101B000067E272E085E292E00E94940D0E949109E2
:101B10008C2FDF91CF911F910F91FF90EF90DF906D
:101B2000BF90AF9008950895FF920F931F93CF93A6
:101B3000DF938C01F62ED72FC42F222349F081E0AA
:101B4000809325010E948F1C909324018093230190
:101B5000809125018823C1F0809123019091240177
:101B60000E94A71C069780F0EF2DFD2FD8014C2F67
:101B700050E0CD01801B910B841795071CF48D91CB
:101B80008193F7CF10922501DF91CF911F910F9193
:101B9000FF9008950F931F93CF93DF93C62FD42FF9
:101BA000122FFC0182818823C9F0609328010E94D2
:101BB0008F1C909327018093260180E28C0F883040
:101BC00008F057C0C77081E001C0880FCA95EAF7D6
:101BD000DF91CF911F910F910C94E9128091280110
:101BE000681330C080912601909127010E94A71CA4
:101BF000883C910538F500E20D0FCD17B9F080E271
:101C00008C0F883040F4C77081E001C0880FCA95FE
:101C1000EAF70E94F012083028F581E09D2F9770B6
:101C200001C0880F9A95EAF70E94E912812F0E945D
:101C3000D6120830F0F4D77081E001C0880FDA9531
:101C4000EAF70AC080E28C0F883098F4C77081E010
:101C500001C0880FCA95EAF7DF91CF911F910F91CC
:101C60000C94F012812FDF91CF911F910F910C9462
:101C7000D612DF91CF911F910F9108959C01CB0156
:101C8000233F4CE53407F9F078F4283DFCE53F07A5
:101C9000B9F0293D4CE5340711F1273D3C4531F5BC
:101CA00026E241EE61EE1EC0253FFCE53F0799F0BC
:101CB00070F0263F3C45D1F427E245EE66EE12C0B7
:101CC00027E245EE0EC026E241EE60EE0BC027E2B1
:101CD00045EE64EE07C026E241EE62EE03C028E264
:101CE00041E065EE0E94CA0D80E00895FC0182810A
:101CF000882319F010922801089581E00895CF9368
:101D0000DF93EC01FB018281882309F41FC1C230FB
:101D1000FCE5DF0708F41BC1C6319CE5D90738F0A4
:101D20009E012A5F3C452930310508F010C10E9410
:101D3000B41B9093300280932F02C031ECE5DE0794
:101D400009F4C3C008F041C0C8308CE5D80709F4D5
:101D50009AC0F0F4C430ECE5DE0709F487C068F4FB
:101D6000C2308CE5D80709F477C0C330DC4509F0F0
:101D7000E3C080912F02826076C0C630ECE5DE07BA
:101D800009F46EC008F07BC080912F0288606BC0A0
:101D9000CC308CE5D80709F485C068F4CA30ECE58E
:101DA000DE0709F474C008F079C00E94891580919B
:101DB0002F02806858C0CE308CE5D80709F476C071
:101DC00008F07FC080912F028BC0CB3FECE5DE078F
:101DD00009F44FC018F5C3318CE5D80709F47DC06C
:101DE00078F4C131ECE5DE0709F473C0C231DC459B
:101DF00009F0A2C00E94891580912F028F7733C00D
:101E0000C5318CE5D80709F472C008F486C0CA3F12
:101E1000DC4509F091C0809130023EC0CF3FFCE527
:101E2000DF0709F45FC058F4CD3F9CE5D90709F4FA
:101E300044C008F43FC08091300282602DC0C130A0
:101E4000FDE5DF0709F475C008F45DC0C230DD456B
:101E500009F072C080E06EC080912F02816003C0E3
:101E600080912F02806180932F0266C080912F02A3
:101E700011C0809130028260809330025DC08091F9
:101E80002F028062F0CF80912F028064ECCF80918E
:101E90002F0288608460E7CF8160EECF80912F02AF
:101EA0008E7FE1CF80912F028D7FDDCF80912F0239
:101EB000877FD9CF8091300218C0809130028D7F0A
:101EC000DBCF80912F028F7ECECF80912F028F7D2E
:101ED000CACF80912F028F7BC6CF80912F02877F40
:101EE0008B7FC1CF809130028D7F8E7FC5CF809157
:101EF0002F0282FB222720F991E0922790FB82F9A2
:101F000090FB83F9B0CF80913002982F909591701B
:101F10008E7F892B90FB81F9AFCF0E94891580912C
:101F20002F0287FB222720F991E0922790FB87F967
:101F30009ACF81E00E94431C80912F029091300241
:101F40000E94C51B0E94891580E001C081E0DF91DD
:101F5000CF91089590932E0180932D010895E091E3
:101F60002D01F0912E01309721F00190F081E02DAC
:101F7000099480E00895EF92FF920F931F93CF93FF
:101F8000DF93E0912D01F0912E013097B1F18C019A
:101F90000280F381E02D09958091850182FF2DC09B
:101FA00080FF04C08CE892E00E94E106E80118E09E
:101FB00086E8E82E82E0F82E8091850180FF0BC034
:101FC00088811F928F93FF92EF920E947A070F9061
:101FD0000F900F900F90115021961111EDCF80911D
:101FE000850180FF0AC084E892E0DF91CF911F91C4
:101FF0000F91FF90EF900C94E106DF91CF911F912C
:102000000F91FF90EF900895E0912D01F0912E0136
:10201000309721F00480F581E02D099408952091F6
:102020002B0130912C012817390771F090932C0166
:1020300080932B01E0912D01F0912E01309721F03A
:102040000680F781E02D09940895209129013091AF
:102050002A012817390771F090932A0180932901EA
:10206000E0912D01F0912E01309721F00084F1854F
:10207000E02D0994089508950C943B100C943C10A5
:102080000C943B100C943B100E9440100C943E109A
:1020900081E008950E94861C0E94130D0E940C1D71
:1020A0000C944210CF93C82F8091850182FF1EC0EF
:1020B00080FF04C085EA92E00E94E10680918501DC
:1020C00080FF0CC01F92CF9380EA92E09F938F9382
:1020D0000E947A070F900F900F900F9080918501CA
:1020E00080FF04C08EE992E00E94E1068C2FCF9120
:1020F0000C949A09BF92CF92DF92EF92FF920F93C6
:102100001F93CF93DF93CDB7DEB72A970FB6F8941E
:10211000DEBF0FBECDBF0E94290D0E944810811165
:1021200011C08FEF89838A831B820E948F1C81607C
:10213000782F9D838C8349815A816B818D810E9488
:10214000101141C020E3C22E21E0D22E00E010E0A9
:10215000B02E802F0E94BE0CE82EF601F1906F0188
:10216000F82651F18091850181FD0E94C40CF0FC9C
:1021700006C0F1FE21C081E092E0F92E03C080E0AC
:10218000FF24F3948E83BF82EF2081E009F480E086
:1021900088870E948F1C8160782F9A8789874E815B
:1021A0005F8168858A850E941011F801E05DFE4F0D
:1021B0008081F826F08207C00F5F1F4F02301105A3
:1021C00009F4AFCFC5CF0E94201F0E94AF0F90919E
:1021D0002F018917A9F00E94AF0F80932F012A9633
:1021E0000FB6F894DEBF0FBECDBFDF91CF911F9128
:1021F0000F91FF90EF90DF90CF90BF900C94521012
:102200002A960FB6F894DEBF0FBECDBFDF91CF91F7
:102210001F910F91FF90EF90DF90CF90BF900895A6
:10222000CF93DF93CDB7DEB72B970FB6F894DEBF11
:102230000FBECDBF4F83588769877A878B87DE01B2
:10224000119686E0FD0111928A95E9F785E0FE017D
:10225000379601900D928A95E1F749815A816B81F9
:102260007C818D819E810E9459182B960FB6F8941F
:10227000DEBF0FBECDBFDF91CF910895FC018081FD
:1022800091810E94AC1A0895CF93882309F424C148
:10229000C82F8238C1F40E94AF0F81FD1DC169E3D0
:1022A00080910001909101010E947B1C0E942C1BD7
:1022B0002FEF81EE94E0215080409040E1F700C084
:1022C000000069E319C0833801F50E94AF0F80FD5B
:1022D00003C163E580910001909101010E947B1C84
:1022E0000E942C1B2FEF81EE94E021508040904003
:1022F000E1F700C0000063E58091000190910101C9
:102300000E947D1CCF910C942C1B8438C1F40E9438
:10231000AF0F82FDE1C067E480910001909101015F
:102320000E947B1C0E942C1B2FEF81EE94E0215019
:1023300080409040E1F700C0000067E4DDCF8CEF03
:102340008C0F813A68F48C2F0E94A3238111C4C0A2
:102350006C2F80910001909101010E947B1CD2CFD3
:1023600080E28C0F883048F4C77081E001C0880F8C
:10237000CA95EAF70E94EE1AC5CF8BE58C0F833021
:1023800078F4C53A29F0C63A31F083E890E005C008
:1023900081E890E002C082E890E0CF910C940F10A9
:1023A00088E58C0F873108F08FC0C83A09F445C022
:1023B000C93A09F445C0CA3A09F445C0CB3A09F410
:1023C00045C0CC3A09F445C0CB3B09F445C0CC3BF1
:1023D00009F445C0CD3A09F445C0C03B09F445C0F5
:1023E000CE3A09F445C0CF3A09F445C0C13B09F4DF
:1023F00045C0C23B09F445C0C33B09F445C0C43BDA
:1024000009F445C0C53B09F445C0C63B09F445C0C5
:10241000C73B09F445C0C83B09F445C0C93B09F4B2
:1024200045C0CD3B09F445C0CE3B09F445C0CA3B8D
:1024300009F445C080E090E044C082EE90E041C0E5
:1024400089EE90E03EC08AEE90E03BC085EB90E0E4
:1024500038C086EB90E035C083EB90E032C084EB6F
:1024600090E02FC087EB90E02CC08CEC90E029C06E
:102470008DEC90E026C083E891E023C08AE891E0EB
:1024800020C082E991E01DC084E991E01AC081E298
:1024900092E017C083E292E014C084E292E011C09F
:1024A00085E292E00EC086E292E00BC087E292E005
:1024B00008C08FE690E005C080E790E002C08AE2A5
:1024C00092E0CF910C942510C03F30F08C2F0E94E9
:1024D000A61DCF910C94931ECF910895882309F4E3
:1024E00064C0823879F40E94AF0F81FF5EC069E357
:1024F00080910001909101010E947B1C0E942C1B85
:1025000069E310C08338B1F40E94AF0F80FF4DC063
:1025100063E580910001909101010E947B1C0E9463
:102520002C1B63E580910001909101010E947D1CAC
:102530000C942C1B843879F40E94AF0F82FF35C0B5
:1025400067E480910001909101010E947B1C0E9430
:102550002C1B67E4E7CF9CEF980F913A10F4682F9B
:10256000E1CF90E2980F983050F4877091E001C06D
:10257000990F8A95EAF7892F0E94F41AD9CF9BE523
:10258000980F933020F480E090E00C940F1098E5C1
:10259000980F973120F480E090E00C942510803F54
:1025A00020F00E940E1E0C94931E0895CF93C82F06
:1025B0000E944411C93349F42FEF87EE93E0215074
:1025C00080409040E1F700C000008C2FCF910C9428
:1025D0006E12882321F00E94EE1A0C942C1B089591
:1025E000882321F00E94F41A0C942C1B0895CF929A
:1025F000DF92EF92FF920F931F93CF93DF937C01B3
:10260000D62FC72FFC01058102950F701281111181
:102610000E940B1B0E94E41A882379F0112369F0B1
:1026200080E28D0F883048F082E00E94761B0E9485
:10263000E41A91E0D82ED92601C0D12CCC2EC29418
:102640008FE0C8228C2D90E08C30910508F0EDC110
:10265000FC01EC5CFF4F0C948C288C2F807FCF709A
:10266000882311F0C295C07F112399F0CC2309F47F
:10267000C8C180E28D0F883010F0D11104C08C2FBA
:102680000E94EE1A03C08C2F0E94FE1A0E942C1B7F
:10269000B8C18D2F0E946E12CC2309F4C6C180E20E
:1026A0008D0F883010F0D11104C08C2F0E94F41AC5
:1026B00003C08C2F0E94041B0E942C1BB6C18C2FC0
:1026C000807FCF70803211F0C295C07FDD2319F07A
:1026D000D130C9F022C0112371F0002341F0013044
:1026E00031F40E94111B8C2B0E94191B9EC10E9469
:1026F000111B8C2B1DC0002319F0013009F495C16A
:102700000E94221B25C0112321F0063008F08DC144
:102710000EC0053008F089C11BC0112361F00023F1
:1027200031F0F701858180FF6CC18F7085838C2F1C
:102730000E94E9127AC1002359F0D93309F072C11D
:10274000FFEF07EE13E0F15000401040E1F768C1E1
:102750008C2F0E94F01269C18C2F8695869583700C
:1027600019F0813061F061C1112321F08D2F9C2F70
:10277000937002C080E090E00E940F105EC11123B0
:1027800021F08D2F9C2F937002C080E090E00E947A
:10279000251053C11123F9F0D53F51F0D63F71F008
:1027A000D43FA9F48091290290912A0281600BC044
:1027B0008091290290912A02826005C080912902AD
:1027C00090912A02846090932A02809329028D2F8F
:1027D0000E94A61D1EC0D53F51F0D63F71F0D43FD8
:1027E000A9F48091290290912A028E7F0BC08091DA
:1027F000290290912A028D7F05C080912902909133
:102800002A028B7F90932A02809329028D2F0E94A7
:102810000E1E0E94931E11C18C2F837009F047C0B9
:10282000111107C12D2F229526952770220F220FF7
:102830006D2F6F70862F90E0A0E0B0E0022E04C0F4
:10284000880F991FAA1FBB1F0A94D2F7D4FF10C08C
:102850004FE050E060E070E004C0440F551F661F79
:10286000771F2A95D2F7409550956095709503C0D3
:1028700040E050E0BA01C695C695C3708A019B013D
:10288000082B192B2A2B3B2BC901B801C23049F068
:1028900058F4C13019F00E942D19CBC00E941B19A9
:1028A000C8C00E943F19C5C00E941919C2C0112397
:1028B00019F08C2F817001C08695882309F4B9C066
:1028C0002D2F229526952770220F220F6D2F6F70C6
:1028D000862F90E0A0E0B0E0022E04C0880F991F80
:1028E000AA1FBB1F0A94D2F7D4FF10C04FE050E0DC
:1028F00060E070E004C0440F551F661F771F2A95E3
:10290000D2F7409550956095709503C040E050E037
:10291000BA01C695C695C3708A019B01082B192B75
:102920002A2B3B2BC901B801C23049F058F4C13001
:1029300019F00E94F2197DC00E94E0197AC00E942D
:10294000041A77C00E94531974C0CF70112339F054
:102950008C2F0E9479198D2F0E94E9126AC08D2F49
:102960000E94F0128C2F0E949A1963C0D23F01F18D
:1029700028F4D03F41F0D13FA1F03FC0D33FF9F060
:10298000D43F39F13AC0112341F0053008F04DC071
:102990008C2F8F710E94BF1948C0063008F045C0C7
:1029A000F7CF112339F08C2F8F710E9479193DC018
:1029B0001123C9F38C2F8F710E949A1936C01123ED
:1029C00029F08C2F8F710E9464192FC00E945F190B
:1029D0002CC0112349F0CF718C2F0E94791963E02C
:1029E0008C2F0E94611B21C081E00E94761B023067
:1029F000E0F082E00E94761B18C0112331F0002322
:102A000091F28D2F0E94441110C0002399F2D93306
:102A100049F41FEF27EE33E0115020403040E1F73A
:102A200000C000008D2F0E946E1288EF8C0D843044
:102A300020F40E94AF0F0E949A09DD20C9F00E9485
:102A4000E01A80FD15C0F70112820E94DA1A0E9476
:102A50007919C7010E9441150E94DA1ADF91CF91BE
:102A60001F910F91FF90EF90DF90CF900C949A19E7
:102A7000DF91CF911F910F91FF90EF90DF90CF905A
:102A800008950F931F93CF93DF93EC019881898171
:102A90002B813C81232B31F08F3F31F481E09F3F2C
:102AA00019F403C081E001C080E080FD13C0CE01B5
:102AB0000E94B309882371F0688179818A810E941C
:102AC000B71A8C010E94161A0E940719B801CE018C
:102AD0000E94F712DF91CF911F910F9108950E94EC
:102AE0000B1B0E940E1B0E942C1B0E94BB1F0E94EE
:102AF000931E80E090E00E940F1080E090E00C9424
:102B0000251080910001909101010E947F1C0C947E
:102B10006F150E94FB1A0C948115E92FE295EF7056
:102B20004E2F50E0FA013297EE30F105B0F4E05C40
:102B3000FF4F0C948C28803F91F018F4883E68F485
:102B40000EC0843F51F40BC0883E48F0813F29F409
:102B500006C093FB882780F9089580E0089581E0FE
:102B600008950E94AC1A0E948D150895CF93DF93AB
:102B700000D000D01F92CDB7DEB70F900F900F900E
:102B80000F900F90DF91CF910895CF93DF9300D0F6
:102B900000D000D0CDB7DEB726960FB6F894DEBFD2
:102BA0000FBECDBFDF91CF9108951F93CF93DF93D9
:102BB000C091330116E080913401C81799F0D0E03C
:102BC0001C9FF0011D9FF00D1124EB5CFE4F408116
:102BD000518162817381848195810E94C5152196FE
:102BE000C770E9CFDF91CF911F91089540916501A2
:102BF000509166016091670170916801809169014F
:102C000090916A010C94C515CF9380916A018295C9
:102C10008F7009F05FC080916701882309F45AC062
:102C200080913301B091340170916501A0916601EA
:102C3000409168015091690191E07F3F09F090E077
:102C4000692FC6E08B1709F445C04115510521F0E5
:102C5000AF3F21F020E003C021E001C0262F90E02B
:102C600020FD35C0C89FF001C99FF00D1124EB5C19
:102C7000FE4F21812A132BC02081271328C02281D7
:102C8000211125C0238134812417350710F42150E8
:102C90003109241B350B283C3105C8F420916A0109
:102CA0002F70206120936A0126E0289FF001299F60
:102CB000F00D1124E65CFE4F80818F70806180836F
:102CC00085E691E00E944115CF910C94D5150196AF
:102CD0008770B8CFCF910895AF92BF92CF92DF9215
:102CE000EF92FF920F931F93CF93DF93CDB7DEB791
:102CF00061970FB6F894DEBF0FBECDBF8C0185E0A3
:102D0000F801DE011D9601900D928A95E1F7D80138
:102D10004C9111965C9111971296EC90309165014F
:102D2000609166018091680190916901009731F08E
:102D30006F3F31F421E03F3F19F403C021E001C0AF
:102D400020E0B22FB170BB2E20FD60C1F801C3801E
:102D5000D480A0906701AA2009F4EEC020916A01F6
:102D6000C816D90628F0D601A81BB90BCD0104C09E
:102D7000809590958C0D9D1DFF24F394883C9105C2
:102D800080F0F12C207F09F09CC07C2DD98AC88A64
:102D90006E2D89890E94B61585E691E00E94411545
:102DA0002DC1822F807F09F054C0561314C04313E5
:102DB00012C0FE2CE1100FC02F70206120936A0119
:102DC0000E94F61585E691E00E94411580916A0106
:102DD000F80185835CC1CD2831F05F3F31F481E09B
:102DE0004F3F19F403C081E001C080E080FD03C0C3
:102DF00081E08E2502C080E090E0F82FF170FF2E78
:102E000080FF1CC0809133012091340136E082178D
:102E100009F41AC190E0389FF001399FF00D112498
:102E2000EB5CFE4F6181561306C06081461303C000
:102E30006281E61203C001968770E9CFFE2CEE2076
:102E400009F425C180916A01816080936A01F12CA7
:102E50001EC1561309C0431307C0E11005C080917D
:102E60006A01F8018583A4C04D875E878D859E85A4
:102E70000E94B115882379F1EE2069F120916A0151
:102E8000822F82958F7090E0029774F08091650197
:102E90009091660198878F831986DB86CA862C8776
:102EA000CE0107960E94411586E0F801A5E6B1E043
:102EB00001900D928A95E1F70E9404160E94F61582
:102EC0000DC0561771F04D875E878D859E850E94D7
:102ED000B11581111AC0C8010E944115FF24F39455
:102EE000D6C04313F0CFE110EECF80916A01F80114
:102EF0008583C8010E94411586E0E5E6F1E0DF0127
:102F00001D928A95E9F7FA2CC2C0EE2021F3209198
:102F10006A01822F82958F7090E002972CF2809147
:102F20006501909166019A8389831B82DD82CC8240
:102F30002E83CE010196B6CFC816D90628F0F60129
:102F4000E81BF90BCF0104C0809590958C0D9D1D59
:102F5000883C910548F0F12C7C2DD98AC88A6E2DC9
:102F600089890E94B6154AC0FE2CEE2009F4B3CF21
:102F7000561333C0431331C020916A0120FD24C091
:102F8000822F82958F70482F50E041155105E1F056
:102F9000D80115962C9315974F30510549F08F5F46
:102FA000982F9295907F822F8F70892B15968C93F6
:102FB000C8010E94411586E0F801A5E6B1E0019044
:102FC0000D928A95E1F73DC086E0F801A5E6B1E0F3
:102FD00001900D928A95E1F75AC04D875E878D85E5
:102FE0009E850E94B11581115FCF80916A01816039
:102FF00080936A01C8010E94411549C0E5E6F1E0ED
:1030000086E0DF011D928A95E9F71BC0EE2009F4E6
:1030100062CF4D875E878D859E850E94B115F82E03
:10302000882309F458CF86E0F801A5E6B1E00190C5
:103030000D928A95E1F785E691E00E943E110E948B
:1030400004160E94F61523C04D875E878D859E85E8
:103050000E94AC1A292F22952F70223028F49F70DD
:1030600039F0811105C00BC0243028F49F7049F459
:10307000805E883020F0C8010E944115BF2CFB2CD7
:1030800006C0D80115969C91907F91F7F8CF8F2DAF
:1030900061960FB6F894DEBF0FBECDBFDF91CF9122
:1030A0001F910F91FF90EF90DF90CF90BF90AF9066
:1030B00008951F93CF93DF93CDB7DEB72C970FB64C
:1030C000F894DEBF0FBECDBF4F83588769877A87DC
:1030D0008B879C87CE0107960E946C168823D1F0BF
:1030E0009F8188852A853B85232B31F08F3F31F4E2
:1030F00081E09F3F19F403C081E001C080E080FDC2
:1031000047C04F81588569857A858B859C850E944B
:10311000C5153EC086E0FE013796DE01119601908E
:103120000D928A95E1F7FF81E8856A857B856115B7
:10313000710531F0EF3F31F481E0FF3F19F403C036
:1031400081E001C080E080FD23C02091340130E0A7
:10315000C9010196877099274091330150E0841787
:103160009507F1F1F983EA837D836C8396E0929F62
:10317000D001939FB00D1124AB5CBE4FFE01319680
:1031800001900D929A95E1F7809334010E94D51534
:1031900016E08091330190913401891771F1189FE5
:1031A000C00111248B5C9E4F0E946C16882329F16C
:1031B000E09133011E9FF0011124EB5CFE4F408132
:1031C000518162817381848195810E94C5158091AE
:1031D000330190E001968770992780933301D9CF0E
:1031E0000E9489151092340110923301E5E6F1E056
:1031F00086E0DF011D928A95E9F72C960FB6F894C8
:10320000DEBF0FBECDBFDF91CF911F91089508950E
:1032100008950C9408190C9409190E940B196093D5
:1032200074017093750180937601909377010C94EB
:103230006F150C940D190F931F9300917401109149
:1032400075012091760130917701602B712B822BD3
:10325000932B1F910F910C940D190F931F930091B5
:1032600074011091750120917601309177016023EE
:103270007123822393231F910F910C940D190F93A7
:103280001F93009174011091750120917601309186
:10329000770160277127822793271F910F910C9444
:1032A0000D190C9408190E945119609370017093C4
:1032B000710180937201909373010C946F1560E01B
:1032C00070E0CB010C9453190F931F9341E050E031
:1032D00060E070E08A019B0104C0000F111F221FF3
:1032E000331F8A95D2F7C901B8011F910F910C9431
:1032F00053190F931F9341E050E060E070E004C069
:10330000440F551F661F771F8A95D2F78091700171
:1033100090917101A0917201B09173018A019B019A
:10332000082B192B2A2B3B2BC901B8011F910F9198
:103330000C9453190F931F9341E050E060E070E04C
:1033400004C0440F551F661F771F8A95D2F740951A
:103350005095609570958091700190917101A09148
:103360007201B09173018A019B01082319232A235A
:103370003B23C901B8011F910F910C9453190F936E
:103380001F9341E050E060E070E004C0440F551F1F
:10339000661F771F8A95D2F7809170019091710115
:1033A000A0917201B09173018A019B01082719272E
:1033B0002A273B27C901B8011F910F910C9453197B
:1033C0000F931F9300917001109171012091720170
:1033D00030917301602B712B822B932B1F910F91D6
:1033E0000C9453190F931F93009170011091710168
:1033F0002091720130917301602371238223932302
:103400001F910F910C9453190F931F93009170010A
:103410001091710120917201309173016027712721
:10342000822793271F910F910C9453190895990F98
:10343000890FE82FE695E695E695877051E001C083
:10344000550F8A95EAF785E0E89FF0011124E559C8
:10345000FE4F20E030E070E04081CB01022E02C040
:10346000969587950A94E2F7817081958427852344
:10347000842781932F5F3F4F2530310569F70895E9
:10348000990F890F682F669566956695982F9770A6
:1034900085E0689FB001112440E050E080E0FB012E
:1034A000E40FF51FE559FE4F208130E0092E02C0E0
:1034B000369527950A94E2F721703327042E01C030
:1034C000220F0A94EAF7822B4F5F5F4F4530510578
:1034D00031F70895BF92CF92DF92EF92FF920F9350
:1034E0001F93CF93DF938C01C0907001D090710136
:1034F000E0907201F09073018091740190917501D8
:10350000A0917601B0917701C82AD92AEA2AFB2A2C
:10351000CFE1D0E0D701C6010C2E04C0B695A79527
:10352000979587950A94D2F780FD04C0219790F76C
:10353000B12C07C0BC2EB8018C2F0E94430A019702
:10354000A9F38B2DDF91CF911F910F91FF90EF90F9
:10355000DF90CF90BF900895CF93DF93EC010E944E
:103560006A1ABE010E94430ADF91CF9108951F930A
:10357000CF93DF93EB0190913201992321F0CB019E
:103580000E94AC1A13C0882349F0CB010E946A1A2A
:10359000182F682FCE010E94171A04C0CB010E9479
:1035A000401A182FBE01812F0E94430ADF91CF914C
:1035B0001F91089580917801859585958595089549
:1035C000809178018770089590917801977081E0DB
:1035D00009F480E008958091840108959091840118
:1035E000892B80938401089580959091840189238B
:1035F000809384010895109284010895909183012D
:10360000892B80938301089580959091830189236C
:10361000809383010895109283010895109282018E
:10362000089580917901089508950C94141B0C94C9
:10363000151B90917901981721F0809379010C94D2
:10364000171B089580917901882329F01092790140
:1036500080E00C94171B0895E0910001F0910101A6
:10366000809184018083E0910001F09101019081BB
:1036700080918301892B8083E0910001F091010109
:10368000908180918201892B8083809179018823A8
:1036900081F0E0910001F09101019081892B8083FC
:1036A00080910001909101010E94481C81110E94AB
:1036B000221B80910001909101010C94BB0F0C948E
:1036C000141B98E0899F90011124262B20937801E8
:1036D0000E947919809178018595859585950C943E
:1036E0005F1B1092780180E00C945F1B20917801A1
:1036F0008095822380937801982F977079F430E039
:10370000482F082E000C550B2417350739F08595E6
:10371000859585950E949A190C94711B0895829540
:10372000982F937344E0949F900111248C7C86958C
:103730008695282B822F8575880F2A7A2695822BCD
:10374000089580E090E00E94AE2821E08C3E9E4FDC
:1037500009F020E0822F089582E090E00C94A628E2
:1037600083E090E00C94A628CF9384E090E00E9440
:10377000A628C82F81E290E00E94A6282C2F30E0D6
:10378000A901582BCA01CF910895CF93C92F682F53
:1037900084E090E00E94B4286C2F81E290E0CF9109
:1037A0000C94B428AB01BC018FE090E00C94C628C7
:1037B000AB01BC0183E190E00C94C62860E070E0AE
:1037C000CB010C94D81B60E070E0CB010E94D21BAF
:1037D0000C94DE1B6CEE7EEF80E090E00E94D2281D
:1037E00060E082E090E00E94B42860E083E090E036
:1037F0000E94B42810927401109275011092760103
:103800001092770160E084E090E00E94B42860E0CC
:1038100081E290E00E94B42860E085E090E00E94A0
:10382000B42860E086E090E00E94B4286FEF87E063
:1038300090E00E94B42840E050E0BA0188E090E0B7
:103840000E94C62860E08DE090E00E94B42840E02D
:1038500050E0BA0188E190E00E94C62860E087E16C
:1038600090E00E94B42840E050E0BA018CE190E082
:103870000E94C62860E080E290E00E94B4280C9488
:10388000E31B0C94EA1B682F8EE090E00C94B428A4
:10389000FC01329697E080E0915029F0219122239B
:1038A000D9F38F5FF9CF08959C01FC0132969FEF09
:1038B00080E04191461789F09F3F19F4411101C002
:1038C000982F8F5F8630A9F79F3F39F0F901E90FF4
:1038D000F11D97FDFA956283089508959C012A5F72
:1038E0003F4FFC014281461301C0128201968217AC
:1038F0009307B9F708950C94541C0C946E1C02960F
:1039000026E0FC0111922A95E9F7089582E084BD32
:1039100093E095BD9AEF97BD80936E0008952FB701
:10392000F89480912B0290912C02A0912D02B091DD
:103930002E022FBF08952FB7F89460912B0270913B
:103940002C0280912D0290912E022FBF0895CF92CC
:10395000DF92EF92FF920F931F932FB7F89440914D
:103960002B0250912C0260912D0270912E022FBFDC
:103970006A017B01EE24FF248C0120E030E0C016B8
:10398000D106E206F30610F4415051099A01281BB2
:10399000390BC9011F910F91FF90EF90DF90CF90ED
:1039A000089578941F920F920FB60F9211248F935F
:1039B0009F93AF93BF9380912B0290912C02A09183
:1039C0002D02B0912E020196A11DB11D80932B02F4
:1039D00090932C02A0932D02B0932E02BF91AF9131
:1039E0009F918F910F900FBE0F901F90189598E0A8
:1039F00088E10FB6F894A895809360000FBE90936D
:103A00006000A895F894D8E0CEEF28E3299320E051
:103A1000299314BEFFCF08950E94A11B811102C0FB
:103A20000E94411C0E94AC1B809385010E94B41B24
:103A30009093300280932F020E94B01B682F70E099
:103A400080E090E00C9419198091890180FF0BC0EF
:103A50006091050185E0689FB00111247595679517
:103A6000759567952BC081FF09C06091050185E0C0
:103A7000689FB00111247595679520C082FF07C02B
:103A80006091050185E0689FB001112417C09091F5
:103A900088019923D1F060910401961788F720914D
:103AA000050185E0289F90011124929FA001939F1A
:103AB000500D112470E0CA010E9478286038710509
:103AC00040F46115710519F406C065E070E0862FB9
:103AD00008958FE7089581E008958091890180FF1E
:103AE00008C06091030170E07595679575956795BD
:103AF00021C081FF06C06091030170E07595679554
:103B000019C082FF04C06091030170E010C0909161
:103B10008801992399F0609102019617A0F780918E
:103B20000301899FC001112470E00E947828603849
:103B3000710540F46115710519F406C061E070E08B
:103B4000862F08958FE7089581E00895803F21F43E
:103B50000E94241D819504C0813F29F40E94241DE8
:103B600080938C010895823F21F40E94241D819549
:103B700004C0833F29F40E94241D80938B01089583
:103B8000893F19F40E946D1D05C08A3F31F40E94DF
:103B90006D1D819580938D0108958B3F21F40E94C6
:103BA0006D1D819504C08C3F29F40E946D1D80938A
:103BB0008E010895843F21F480918A01816017C0AD
:103BC000853F21F480918A01826011C0863F21F4F3
:103BD00080918A0184600BC0873F21F480918A0123
:103BE000886005C0883F31F480918A0180618093AC
:103BF0008A0108958D3F21F48091890181600BC075
:103C00008E3F21F480918901826005C08F3F29F4A5
:103C1000809189018460809389010895803F39F4FF
:103C200080918C0187FF6CC010928C0169C0813F2C
:103C300029F480918C011816BCF362C090918B011D
:103C4000823F29F497FF5CC010928B0159C0833FDB
:103C500019F41916CCF354C0893F41F480918D01B9
:103C600018160CF04DC010928D014AC08A3F29F4FD
:103C700080918D0187FF44C0F6CF8B3F39F480914E
:103C80008E0187FF3DC010928E013AC08C3F29F40F
:103C900080918E011816BCF333C0843F21F48091CB
:103CA0008A018E7F17C0853F21F480918A018D7F24
:103CB00011C0863F21F480918A018B7F0BC0873F22
:103CC00021F480918A01877F05C0883F31F480917B
:103CD0008A018F7E80938A0113C08D3F21F48091E9
:103CE00089018E7F0BC08E3F21F4809189018D7FE9
:103CF00005C08F3F29F4809189018B7F80938901D2
:103D000080918B0181110EC080918C0181110AC0BC
:103D100080918D01811106C080918E01811102C0B8
:103D20001092880108958091850183FF7EC08FEDF8
:103D300092E00E94E10680918A011F928F938AEDA2
:103D400092E09F938F930E947A0788ED92E00E9401
:103D5000E10680918B01282F082E000C330B3F9336
:103D60008F9385ED92E09F938F930E947A0783ED66
:103D700092E00E94E10680918C01282F082E000C11
:103D8000330B3F938F9380ED92E09F938F930E942C
:103D90007A078EEC92E00E94E10680918D01282F37
:103DA000082E000C330B3F938F938BEC92E09F9384
:103DB0008F930E947A0789EC92E00E94E10680913D
:103DC0008E01282F082E000C330B3F938F9386EC27
:103DD00092E09F938F930E947A0783EC92E00E9477
:103DE000E106809188011F928F9380EC92E09F936F
:103DF0008F930E947A078EEB92E00E94E1068091F9
:103E000089011F928F938BEB92E09F938F930E9477
:103E10007A0788EB92E00E94E1068DB79EB74C9638
:103E20000FB6F8949EBF0FBE8DBF8AE891E00E9446
:103E300004100E948F1C909387018093860108953F
:103E40001F93CF93DF9380918601909187010E9409
:103E5000A71CAC0190918801992321F020910601C3
:103E600030E006C0209107018AE0289F90011124CC
:103E70004217530708F47BC080918B01C0918C01DD
:103E8000D0918D0110918E01811107C0C1116BC0BD
:103E9000D11169C0111167C06AC09F3F19F09F5FBF
:103EA00090938801181624F40E94241D80938B019E
:103EB00080918B0187FF05C00E94241D819580930E
:103EC0008B011C1624F40E94241D80938C01809188
:103ED0008C0187FF05C00E94241D819580938C0171
:103EE00030918B013323E1F020918C012223C1F02A
:103EF00045EB3403C0011124992319F090938B01F1
:103F000003C081E080938B0135EB2303C0011124B2
:103F1000992319F090938C0103C081E080938C0168
:103F20001D1624F40E946D1D80938D0180918D01DA
:103F300087FF05C00E946D1D819580938D0111162C
:103F400024F40E946D1D80938E0180918E0187FF65
:103F500005C00E946D1D819580938E01DF91CF91E8
:103F60001F910C94931E9F3F09F099CFAACFDF9128
:103F7000CF911F910895EAE8F1E085E0DF011D92FD
:103F80008A95E9F71092880110928901089582E0DC
:103F900095E00E94E1061F9281E08F931F9285E0D9
:103FA0008F9384EB94E09F938F930E947A070F90F6
:103FB0000F900F900F900F900F9008958330E9F1BC
:103FC00028F4813061F0823009F10895853009F4D8
:103FD00062C008F449C0863009F474C00895809125
:103FE0000701262F30E0280F311D2F3F310524F423
:103FF000680F6093070103C08FEF809307018091E2
:1040000007011F928F938DEE93E072C0809106019D
:10401000262F30E0280F311D2F3F310524F4680F83
:104020006093060103C08FEF809306018091060123
:104030001F928F938BED93E05BC080910501262F3B
:1040400030E0280F311D2F3F310524F4680F6093B5
:10405000050103C08FEF80930501809105011F9238
:104060008F9388EC93E044C080910401262F30E0C8
:10407000280F311D2F3F310524F4680F6093040190
:1040800003C08FEF80930401809104011F928F93EE
:1040900083EB93E02DC080910301262F30E0280FA1
:1040A000311D2F3F310524F4680F6093030103C0D5
:1040B0008FEF80930301809103011F928F938AE910
:1040C00093E016C080910201262F30E0280F311DA9
:1040D0002F3F310524F4680F6093020103C08FEF76
:1040E00080930201809102011F928F938FE793E0EA
:1040F0009F938F930E947A070F900F900F900F90CD
:104100000895833081F128F4813059F08230D1F064
:104110000895853009F449C0B8F1863009F456C0D5
:10412000089580910701681720F4861B809307018A
:1041300002C010920701809107011F928F9380E7C0
:1041400093E054C080910601681720F4861B809389
:10415000060102C010920601809106011F928F9302
:104160008EE593E043C080910501681720F4861B1B
:104170008093050102C010920501809105011F92F4
:104180008F938BE493E032C080910401681720F490
:10419000861B8093040102C01092040180910401E7
:1041A0001F928F9386E393E021C0809103016817EB
:1041B00020F4861B8093030102C0109203018091BA
:1041C00003011F928F938DE193E010C08091020153
:1041D000681720F4861B8093020102C0109202012E
:1041E000809102011F928F9382E093E09F938F93BF
:1041F0000E947A070F900F900F900F900895CF9321
:10420000C82F1F928F9387E096E09F938F930E9411
:104210007A0781E090E0A0E0B0E0BC01CD0104C0ED
:10422000660F771F881F991FCA95D2F70E94191928
:104230000F900F900F900F90CF910C948915CF9302
:10424000DF938B3109F4F9C108F08FC18B3009F489
:10425000B2C108F065C1863009F4B0C120F48530E0
:1042600009F4BEC158C2873009F4CCC1883009F0C6
:1042700052C28FE19BE00E94E10680E79AE00E9433
:10428000E1060E94B01B1F928F938DE69AE09F93E8
:104290008F930E947A078BE69AE00E94E1060E94C3
:1042A000AC1BC82F88E59AE00E94E1061F92CF93CD
:1042B00083E59AE09F938F930E947A0781E59AE0C5
:1042C0000E94E10687E49AE00E94E1068C2F81704B
:1042D0001F928F9384E49AE09F938F930E947A07B2
:1042E00082E49AE00E94E10688E39AE00E94E106F7
:1042F000C1FB882780F91F928F9385E39AE09F93F3
:104300008F930E947A0783E39AE00E94E10687E296
:104310009AE00E94E106C2FB882780F91F928F93E2
:1043200084E29AE09F938F930E947A0782E29AE058
:104330000E94E10689E19AE00E94E106C3FBCC27D6
:10434000C0F91F92CF9386E19AE09F938F930E94CA
:104350007A0784E19AE00E94E1060E94B41BEC0116
:1043600080E09AE00E94E106DF93CF938BEF99E023
:104370009F938F930E947A0789EF99E00E94E1064C
:1043800080EE99E00E94E1068C2F81701F928F933E
:104390008DED99E09F938F930E947A078DB79EB71A
:1043A00080960FB6F8949EBF0FBE8DBF8BED99E03F
:1043B0000E94E10684EC99E00E94E106C1FB882797
:1043C00080F91F928F9381EC99E09F938F930E94C5
:1043D0007A078FEB99E00E94E1068DEA99E00E944E
:1043E000E1068D2F81701F928F938AEA99E09F9347
:1043F0008F930E947A0788EA99E00E94E10686E995
:1044000099E00E94E106D695D1701F92DF9383E96F
:1044100099E09F938F930E947A0781E999E00E9427
:10442000E1068FE799E00E94E106C2FB882780F948
:104430001F928F938CE799E09F938F930E947A0746
:104440008AE799E00E94E10688E699E00E94E10689
:10445000C3FB882780F91F928F9385E699E09F938D
:104460008F930E947A0783E699E00E94E10689E52E
:1044700099E00E94E106C4FB882780F91F928F9380
:1044800086E599E09F938F930E947A0784E599E0EF
:104490000E94E10682E499E00E94E106C5FB8827BC
:1044A00080F91F928F938FE399E09F938F930E94DF
:1044B0007A078DE399E00E94E10681E299E00E948B
:1044C000E106C6FB882780F91F928F938EE199E061
:1044D0009F938F930E947A078DB79EB780960FB6F1
:1044E000F8949EBF0FBE8DBF8CE199E00E94E1065B
:1044F00084E199E00E94E106C7FBCC27C0F91F9236
:10450000CF9381E199E09F938F930E947A078FE088
:1045100099E00E94E1060F900F900F900F9049C014
:10452000803109F4B4C020F48E3009F49AC0F3C08D
:10453000863109F4C7C0893109F0EDC086E397E000
:104540000E94E1068DE197E00E94E1068FED96E082
:104550000E94E1068CEA96E00E94E10686E796E07A
:104560000E94E1068BE496E08FC08A32E1F060F4AD
:10457000873209F4CCC028F48E3108F4CCC08D51B8
:10458000C7C0893269F1C7C0833448F48A3308F060
:10459000BCC0853309F4BBC0883369F0BCC0833428
:1045A00009F4B5C0B8C08EE09BE00E94E1060E940D
:1045B000411CC1E0B5C08CE697E066C080918501E2
:1045C000817F8E7F8093850185E497E00E94E106DC
:1045D0008AE09BE00E94E10681E080939001E9CFB0
:1045E0000E9489158EEE9AE00E94E1069FEF23ED6E
:1045F00080E3915020408040E1F700C000000E941D
:10460000F71CD7CF80918501C82FC095C170C0FB22
:1046100080F980938501CC2329F082EE9AE00E94F4
:10462000E1067EC085ED9AE00E94E1068091850159
:10463000897F877F80938501BCCF9091850191FB15
:10464000CC27C0F981E0C827892FC0FB81F980936E
:104650008501CC2319F088EC9AE029C08AEB9AE016
:1046600013C09091850192FBCC27C0F981E0C82747
:10467000892FC0FB82F980938501CC2319F08BEA46
:104680009AE015C08BE99AE00E94E10692CF9091E2
:10469000850193FBCC27C0F981E0C827892FC0FB97
:1046A00083F980938501CC2351F08FE89AE00E9432
:1046B000E1068091850181608093850131C082E8A7
:1046C0009AE0E2CF8DE396E00E94E1060E94AF0FF0
:1046D0001F928F9383E296E09F938F930E947A07B5
:1046E0000E949B1C9F938F937F936F938CE096E027
:1046F0009F938F930E947A078DB79EB70A960FB645
:10470000F8949EBF0FBE8DBF54CF895301C080E087
:104710000E94FF204ECF80E89AE00E94E106C0E0B0
:104720008C2FDF91CF91089580E008950C9494230D
:104730008E518A3030F4E82FF0E0EA5EFE4F80813F
:10474000089580E00895CF93C82F80919001813023
:1047500059F020F0823009F445C039C10E94EB1AAB
:10476000823209F036C104C00E94EB1A823261F431
:104770008C2F0E949623811104C08C2F0E941F2130
:104780002FC081E090E02CC08C2F0E9494238111D7
:1047900026C0C431E1F070F4CB3081F0C031D1F4E7
:1047A0000E94C71F8FEF95E00E94E10682E0809390
:1047B000900115C0C93259F0C83361F485E497E01F
:1047C0000E94E10683E096E00E94E10608C0109294
:1047D000900101C18DEF95E00E94E106FCC081E0EF
:1047E0008170FBC0C43228F5CE3108F0C1C0CB3097
:1047F000A1F1D0F4C73009F0D0C08EE18093070159
:1048000082E3809306018AE08093050184E180932E
:10481000040188E08093030188E28093020183EA27
:1048200094E00E94E106BCC0C33149F1C431C1F03B
:10483000B4C0CB3409F4A6C028F4C93289F0C83317
:1048400061F0ABC0C13509F49BC0C23509F496C014
:10485000CE3409F0A2C06AE09BC00E94C71FA0C06E
:1048600080918F01882319F010928F0199C080EBFD
:1048700094E00E94E10681E080939001AEC08AE856
:1048800094E00E94E10688E794E00E94E1068091AE
:1048900007011F928F9385E794E09F938F930E9467
:1048A0007A0783E794E00E94E10681E694E00E94A3
:1048B000E106809106011F928F938EE594E09F930D
:1048C0008F930E947A078CE594E00E94E1068DE4C4
:1048D00094E00E94E106809105011F928F938AE483
:1048E00094E09F938F930E947A0788E494E00E945B
:1048F000E10687E394E00E94E106809104011F92A3
:104900008F9384E394E09F938F930E947A0782E3CE
:1049100094E00E94E1068DE194E00E94E10680911E
:1049200003011F928F938AE194E09F938F930E94DB
:104930007A0788E194E00E94E10681E094E00E9419
:10494000E106809102011F928F938EEF93E09F9377
:104950008F930E947A078CEF93E00E94E1068DB757
:104960009EB748960FB6F8949EBF0FBE8DBF18C075
:104970008C2F0E94982380938F0112C061E003C0A6
:1049800061E006C06AE080918F010E94DE1F08C0CE
:1049900080918F010E94812003C081EA94E013C0BE
:1049A00080918F01882369F01F928F938BE994E0A7
:1049B0009F938F930E947A070F900F900F900F9004
:1049C00004C088E994E00E94E10681E006C01092EC
:1049D000900180E002C080E003CFCF91089580E88D
:1049E00080936100109261000E9444100E944A105E
:1049F0000E9439260E94AA0F8091850180FF04C081
:104A000085E39BE00E94E1060E946528539A80E0BE
:104A1000815041F0A895EFE9FFE03197F1F700C030
:104A20000000F6CF539878948091850180FF04C0F0
:104A30008AE29BE00E94E1060E946027809150027A
:104A4000882329F080913C0284FD0E947A100E9404
:104A50009825F2CF809123020895CF93DF9300D061
:104A60001F92CDB7DEB720919301309194012817A2
:104A7000390789F0909394018093930124E029836E
:104A80009B838A838091670284FF05C063E0CE0127
:104A900001960E945C270F900F900F90DF91CF91AD
:104AA0000895CF93DF9300D01F92CDB7DEB720914A
:104AB0009101309192012817390789F09093920162
:104AC0008093910123E029839B838A8380916702ED
:104AD00084FF05C063E0CE0101960E945C270F9021
:104AE0000F900F90DF91CF910895CF93DF9300D077
:104AF00000D000D0CDB7DEB7FC0182E0898395E01D
:104B0000DE01129601900D929A95E1F7809167026D
:104B100084FF05C066E0CE0101960E945C272696C0
:104B20000FB6F894DEBF0FBECDBFDF91CF910895D1
:104B3000CF93DF93CAE0D0E080913C0284FF63C052
:104B40008091A0019091A101981709F467C028E015
:104B5000829FC001112468E08E559E4F0E94582705
:104B60008091A00190E001968F7099278093A00119
:104B70008091850182FF52C081ED9BE00E94E10699
:104B80008091A0011F928F938EEC9BE09F938F9357
:104B90000E947A078BEC9BE00E94E1068091A101C4
:104BA0001F928F9388EC9BE09F938F930E947A07CC
:104BB00085EC9BE00E94E1065091A1014091A0018B
:104BC0008DB79EB708960FB6F8949EBF0FBE8DBFE7
:104BD000242F30E0852F90E0821B930B541708F4AC
:104BE00040969F938F9380EC9BE09F938F930E94BE
:104BF0007A070F900F900F900F908DEB9BE0DF9155
:104C0000CF910C94E1060E9460278FE99FE0019705
:104C1000F1F700C00000219709F08ECFDF91CF910E
:104C20000895FC01A091A101B0E09D012F5F3F4FCD
:104C30002F7033278091A001821779F083E0AA0FAB
:104C4000BB1F8A95E1F7AE55BE4F98E001900D92DB
:104C50009A95E1F72093A10108C08091850180FF1A
:104C600004C081EB9BE00E94E1060E9460270C9447
:104C7000982588E091E00895CF93DF93EC01988127
:104C8000907680918501903209F067C099819130CA
:104C900071F480FF04C085EA9BE00E94E10688E988
:104CA00091E090934C0280934B0288E068C0923070
:104CB00071F480FF04C08AE99BE00E94E10682E271
:104CC00092E090934C0280934B0281E058C09A305E
:104CD000E1F49B819093220280FF04C08FE89BE067
:104CE0000E94E1068091850180FF48C080912202E8
:104CF0001F928F938AE89BE09F938F930E947A077D
:104D00000F900F900F900F902EC0993009F580FFF3
:104D100004C08DE79BE00E94E1068A819B8181159A
:104D2000924051F58C819D81892B31F580918501CF
:104D300080FF04C083E79BE00E94E10681E080934E
:104D400097018E819F81909396018093950114C065
:104D500080FF14C08AE69BE004C080FF0FC082E69B
:104D60009BE00E94E1068091850180FF07C080E6FC
:104D70009BE00E94E10602C08FEF01C080E0DF915E
:104D8000CF910895CF93DF932091950130919601B3
:104D9000232B79F120919701213059F5EC01809175
:104DA000850180FF04C086E59BE00E94E1068091BA
:104DB000850180FF0DC088811F928F9381E59BE064
:104DC0009F938F930E947A070F900F900F900F90F0
:104DD0008091850180FF04C08FE49BE00E94E10682
:104DE000888180932302109296011092950181E0B0
:104DF00001C08FEFDF91CF910895FC018381813253
:104E000061F08232D1F0823071F58EED9BE09093AB
:104E10004C0280934B028BE308958281882329F012
:104E2000813009F589E09CE002C080EF9BE090931F
:104E30004C0280934B0289E008958481958100970C
:104E400051F0019781F489E19CE090934C028093AA
:104E50004B0284E808958DE99CE090934C02809386
:104E60004B0280E4089580E008951F93CF93DF9371
:104E7000162FEA01288124FF05C0398128E823275D
:104E8000298302C02AE52883FC019E012E5F3F4F43
:104E9000D901912F81918D939150E1F7612FC90133
:104EA0000E9498071C5F1883DF91CF911F9108958E
:104EB0004CE352E00C94352747E652E00C9435273A
:104EC000CF93DF9360914D02635067FDA7C080913F
:104ED0004A02CCE0D0E0C81BD109CF5ADD4F809107
:104EE00049028D3209F088C0683009F095C083EC22
:104EF000809331028AE58093130110922402888105
:104F0000807621F0CE010E943C2663C09A811092E7
:104F10003A028981811106C010923B022AE332E0F5
:104F200082E052C0853019F490934E024AC0863018
:104F300081F58B81813019F48DED9CE012C08230B7
:104F4000F9F08330C9F4911108C083E19DE090939A
:104F50004C0280934B0284E018C0913041F481E010
:104F60009DE090934C0280934B0282E10EC0923000
:104F700059F48FEE9CE0F5CF813211F0823221F4AA
:104F8000CE010E94FD2601C080E090E490932402AF
:104F900020C0883079F0893019F49093500211C004
:104FA0008A3059F08B3069F48BE480933D02809312
:104FB000680207C020E532E002C02AE332E081E067
:104FC00003C02AE332E080E030934C0220934B028E
:104FD00009C08F3F39F4988197FD8E8190E89093B6
:104FE000240207C09F81911104C09E81981708F484
:104FF000892F8093120110C08091240287FF0CC07A
:10500000CE010E94C2268F3F21F48EE180931301CE
:1050100003C081111092120110924D028091130170
:1050200084FF46C0809112018F3F09F441C0C82F10
:10503000893008F0C8E08C1B8093120190913102F6
:1050400088E8892780933102CC2329F180914B0293
:1050500090914C022091240226FF0AC0A2E3B2E004
:10506000FC012C2F34913D9331962150D9F708C083
:10507000DC01E2E3F2E02C2F3D9131932150E1F786
:105080002FEF2C0F30E02F5F3F4F820F931F909335
:105090004C0280934B026C2F82E392E00E949807AF
:1050A000CC5FCC3019F08FEF80931201C0931301C5
:1050B00084E199B19C7031F48150D9F710924E027D
:1050C00010924802DF91CF910895E9E6F0E08081E7
:1050D00082608083E89AACE3B2E08BE411968C9313
:1050E0001197E7E6F2E081838AE58C938083089547
:1050F00097FB072E16F4009407D077FD09D00E9485
:10510000922807FC05D03EF4909581959F4F089515
:10511000709561957F4F0895EE0FFF1F0590F491F4
:10512000E02D0994AA1BBB1B51E107C0AA1FBB1F9E
:10513000A617B70710F0A61BB70B881F991F5A9523
:10514000A9F780959095BC01CD010895F999FECFFE
:1051500092BD81BDF89A992780B50895A8E1B0E085
:1051600042E050E00C94DA28262FF999FECF92BD48
:1051700081BDF89A019700B4021639F01FBA20BD1C
:105180000FB6F894FA9AF99A0FBE08950396272F4E
:105190000E94B5280E94B428252F0E94B528242FEC
:1051A0000C94B5280196272F0E94B5280C94B4289A
:1051B000DC01CB01FC01F999FECF06C0F2BDE1BDD7
:1051C000F89A319600B40D9241505040B8F70895C6
:0451D000F894FFCF81
:1051D4007A012808140A321E2A251126752551251C
:1051E4002D25FF5A3435010203040506070809007A
:00000001FF
